{
    "_format": "hh-sol-artifact-1",
    "contractName": "TestLensApiConsumerContract",
    "sourceName": "contracts/YouTube.sol",
    "abi": [
        {
            "inputs": [
                {
                    "internalType": "address",
                    "name": "phatAttestor",
                    "type": "address"
                }
            ],
            "stateMutability": "nonpayable",
            "type": "constructor"
        },
        {
            "inputs": [],
            "name": "BadAttestor",
            "type": "error"
        },
        {
            "inputs": [
                {
                    "internalType": "uint256",
                    "name": "kenLen",
                    "type": "uint256"
                },
                {
                    "internalType": "uint256",
                    "name": "valueLen",
                    "type": "uint256"
                }
            ],
            "name": "BadCondLen",
            "type": "error"
        },
        {
            "inputs": [
                {
                    "internalType": "uint256",
                    "name": "kenLen",
                    "type": "uint256"
                },
                {
                    "internalType": "uint256",
                    "name": "valueLen",
                    "type": "uint256"
                }
            ],
            "name": "BadUpdateLen",
            "type": "error"
        },
        {
            "inputs": [
                {
                    "internalType": "uint8",
                    "name": "actionId",
                    "type": "uint8"
                }
            ],
            "name": "CannotDecodeAction",
            "type": "error"
        },
        {
            "inputs": [
                {
                    "internalType": "bytes",
                    "name": "cond",
                    "type": "bytes"
                },
                {
                    "internalType": "uint32",
                    "name": "expected",
                    "type": "uint32"
                },
                {
                    "internalType": "uint32",
                    "name": "actual",
                    "type": "uint32"
                }
            ],
            "name": "CondNotMet",
            "type": "error"
        },
        {
            "inputs": [
                {
                    "internalType": "bytes",
                    "name": "data",
                    "type": "bytes"
                }
            ],
            "name": "Internal_toUint32Strict_outOfBounds",
            "type": "error"
        },
        {
            "inputs": [
                {
                    "internalType": "uint256",
                    "name": "targetIdx",
                    "type": "uint256"
                },
                {
                    "internalType": "uint256",
                    "name": "tailIdx",
                    "type": "uint256"
                }
            ],
            "name": "InvalidPopTarget",
            "type": "error"
        },
        {
            "inputs": [],
            "name": "MetaTxSignatureNotMatch",
            "type": "error"
        },
        {
            "inputs": [
                {
                    "internalType": "uint256",
                    "name": "actual",
                    "type": "uint256"
                },
                {
                    "internalType": "uint256",
                    "name": "currentNonce",
                    "type": "uint256"
                }
            ],
            "name": "NonceTooLow",
            "type": "error"
        },
        {
            "inputs": [
                {
                    "internalType": "uint8",
                    "name": "actionId",
                    "type": "uint8"
                }
            ],
            "name": "UnsupportedAction",
            "type": "error"
        },
        {
            "anonymous": false,
            "inputs": [
                {
                    "indexed": false,
                    "internalType": "uint256",
                    "name": "reqId",
                    "type": "uint256"
                },
                {
                    "indexed": false,
                    "internalType": "string",
                    "name": "pair",
                    "type": "string"
                },
                {
                    "indexed": false,
                    "internalType": "uint256",
                    "name": "errno",
                    "type": "uint256"
                }
            ],
            "name": "ErrorReceived",
            "type": "event"
        },
        {
            "anonymous": false,
            "inputs": [
                {
                    "indexed": false,
                    "internalType": "uint256",
                    "name": "",
                    "type": "uint256"
                }
            ],
            "name": "MessageProcessedTo",
            "type": "event"
        },
        {
            "anonymous": false,
            "inputs": [
                {
                    "indexed": false,
                    "internalType": "uint256",
                    "name": "idx",
                    "type": "uint256"
                },
                {
                    "indexed": false,
                    "internalType": "bytes",
                    "name": "data",
                    "type": "bytes"
                }
            ],
            "name": "MessageQueued",
            "type": "event"
        },
        {
            "anonymous": false,
            "inputs": [],
            "name": "MetaTxDecoded",
            "type": "event"
        },
        {
            "anonymous": false,
            "inputs": [
                {
                    "indexed": true,
                    "internalType": "address",
                    "name": "previousOwner",
                    "type": "address"
                },
                {
                    "indexed": true,
                    "internalType": "address",
                    "name": "newOwner",
                    "type": "address"
                }
            ],
            "name": "OwnershipTransferred",
            "type": "event"
        },
        {
            "anonymous": false,
            "inputs": [
                {
                    "indexed": false,
                    "internalType": "uint256",
                    "name": "reqId",
                    "type": "uint256"
                },
                {
                    "indexed": false,
                    "internalType": "string",
                    "name": "pair",
                    "type": "string"
                },
                {
                    "indexed": false,
                    "internalType": "uint256",
                    "name": "value",
                    "type": "uint256"
                }
            ],
            "name": "ResponseReceived",
            "type": "event"
        },
        {
            "anonymous": false,
            "inputs": [
                {
                    "indexed": true,
                    "internalType": "bytes32",
                    "name": "role",
                    "type": "bytes32"
                },
                {
                    "indexed": true,
                    "internalType": "bytes32",
                    "name": "previousAdminRole",
                    "type": "bytes32"
                },
                {
                    "indexed": true,
                    "internalType": "bytes32",
                    "name": "newAdminRole",
                    "type": "bytes32"
                }
            ],
            "name": "RoleAdminChanged",
            "type": "event"
        },
        {
            "anonymous": false,
            "inputs": [
                {
                    "indexed": true,
                    "internalType": "bytes32",
                    "name": "role",
                    "type": "bytes32"
                },
                {
                    "indexed": true,
                    "internalType": "address",
                    "name": "account",
                    "type": "address"
                },
                {
                    "indexed": true,
                    "internalType": "address",
                    "name": "sender",
                    "type": "address"
                }
            ],
            "name": "RoleGranted",
            "type": "event"
        },
        {
            "anonymous": false,
            "inputs": [
                {
                    "indexed": true,
                    "internalType": "bytes32",
                    "name": "role",
                    "type": "bytes32"
                },
                {
                    "indexed": true,
                    "internalType": "address",
                    "name": "account",
                    "type": "address"
                },
                {
                    "indexed": true,
                    "internalType": "address",
                    "name": "sender",
                    "type": "address"
                }
            ],
            "name": "RoleRevoked",
            "type": "event"
        },
        {
            "inputs": [],
            "name": "ATTESTOR_ROLE",
            "outputs": [
                {
                    "internalType": "bytes32",
                    "name": "",
                    "type": "bytes32"
                }
            ],
            "stateMutability": "view",
            "type": "function"
        },
        {
            "inputs": [],
            "name": "DEFAULT_ADMIN_ROLE",
            "outputs": [
                {
                    "internalType": "bytes32",
                    "name": "",
                    "type": "bytes32"
                }
            ],
            "stateMutability": "view",
            "type": "function"
        },
        {
            "inputs": [
                {
                    "internalType": "uint256",
                    "name": "",
                    "type": "uint256"
                }
            ],
            "name": "bets",
            "outputs": [
                {
                    "internalType": "address payable",
                    "name": "bettor",
                    "type": "address"
                },
                {
                    "internalType": "enum TestLensApiConsumerContract.Range",
                    "name": "betRange",
                    "type": "uint8"
                }
            ],
            "stateMutability": "view",
            "type": "function"
        },
        {
            "inputs": [
                {
                    "internalType": "uint256",
                    "name": "number",
                    "type": "uint256"
                }
            ],
            "name": "executeBets",
            "outputs": [],
            "stateMutability": "nonpayable",
            "type": "function"
        },
        {
            "inputs": [],
            "name": "getCurrent",
            "outputs": [
                {
                    "internalType": "bytes",
                    "name": "",
                    "type": "bytes"
                }
            ],
            "stateMutability": "view",
            "type": "function"
        },
        {
            "inputs": [],
            "name": "getHeadIndex",
            "outputs": [
                {
                    "internalType": "uint32",
                    "name": "",
                    "type": "uint32"
                }
            ],
            "stateMutability": "view",
            "type": "function"
        },
        {
            "inputs": [],
            "name": "getHeadStorageKey",
            "outputs": [
                {
                    "internalType": "bytes",
                    "name": "",
                    "type": "bytes"
                }
            ],
            "stateMutability": "view",
            "type": "function"
        },
        {
            "inputs": [
                {
                    "internalType": "bytes32",
                    "name": "role",
                    "type": "bytes32"
                }
            ],
            "name": "getRoleAdmin",
            "outputs": [
                {
                    "internalType": "bytes32",
                    "name": "",
                    "type": "bytes32"
                }
            ],
            "stateMutability": "view",
            "type": "function"
        },
        {
            "inputs": [
                {
                    "internalType": "bytes",
                    "name": "key",
                    "type": "bytes"
                }
            ],
            "name": "getStorage",
            "outputs": [
                {
                    "internalType": "bytes",
                    "name": "",
                    "type": "bytes"
                }
            ],
            "stateMutability": "view",
            "type": "function"
        },
        {
            "inputs": [],
            "name": "getTailIndex",
            "outputs": [
                {
                    "internalType": "uint32",
                    "name": "",
                    "type": "uint32"
                }
            ],
            "stateMutability": "view",
            "type": "function"
        },
        {
            "inputs": [],
            "name": "getTailStorageKey",
            "outputs": [
                {
                    "internalType": "bytes",
                    "name": "",
                    "type": "bytes"
                }
            ],
            "stateMutability": "view",
            "type": "function"
        },
        {
            "inputs": [
                {
                    "internalType": "bytes32",
                    "name": "role",
                    "type": "bytes32"
                },
                {
                    "internalType": "address",
                    "name": "account",
                    "type": "address"
                }
            ],
            "name": "grantRole",
            "outputs": [],
            "stateMutability": "nonpayable",
            "type": "function"
        },
        {
            "inputs": [
                {
                    "internalType": "bytes32",
                    "name": "role",
                    "type": "bytes32"
                },
                {
                    "internalType": "address",
                    "name": "account",
                    "type": "address"
                }
            ],
            "name": "hasRole",
            "outputs": [
                {
                    "internalType": "bool",
                    "name": "",
                    "type": "bool"
                }
            ],
            "stateMutability": "view",
            "type": "function"
        },
        {
            "inputs": [
                {
                    "internalType": "bytes",
                    "name": "malformedData",
                    "type": "bytes"
                }
            ],
            "name": "malformedRequest",
            "outputs": [],
            "stateMutability": "nonpayable",
            "type": "function"
        },
        {
            "inputs": [
                {
                    "internalType": "address",
                    "name": "from",
                    "type": "address"
                }
            ],
            "name": "metaTxGetNonce",
            "outputs": [
                {
                    "internalType": "uint256",
                    "name": "",
                    "type": "uint256"
                }
            ],
            "stateMutability": "view",
            "type": "function"
        },
        {
            "inputs": [
                {
                    "internalType": "address",
                    "name": "from",
                    "type": "address"
                },
                {
                    "internalType": "bytes",
                    "name": "data",
                    "type": "bytes"
                }
            ],
            "name": "metaTxPrepare",
            "outputs": [
                {
                    "components": [
                        {
                            "internalType": "address",
                            "name": "from",
                            "type": "address"
                        },
                        {
                            "internalType": "uint256",
                            "name": "nonce",
                            "type": "uint256"
                        },
                        {
                            "internalType": "bytes",
                            "name": "data",
                            "type": "bytes"
                        }
                    ],
                    "internalType": "struct MetaTxReceiver.ForwardRequest",
                    "name": "",
                    "type": "tuple"
                },
                {
                    "internalType": "bytes32",
                    "name": "",
                    "type": "bytes32"
                }
            ],
            "stateMutability": "view",
            "type": "function"
        },
        {
            "inputs": [
                {
                    "internalType": "address",
                    "name": "from",
                    "type": "address"
                },
                {
                    "internalType": "bytes",
                    "name": "data",
                    "type": "bytes"
                },
                {
                    "internalType": "uint256",
                    "name": "nonce",
                    "type": "uint256"
                }
            ],
            "name": "metaTxPrepareWithNonce",
            "outputs": [
                {
                    "components": [
                        {
                            "internalType": "address",
                            "name": "from",
                            "type": "address"
                        },
                        {
                            "internalType": "uint256",
                            "name": "nonce",
                            "type": "uint256"
                        },
                        {
                            "internalType": "bytes",
                            "name": "data",
                            "type": "bytes"
                        }
                    ],
                    "internalType": "struct MetaTxReceiver.ForwardRequest",
                    "name": "",
                    "type": "tuple"
                },
                {
                    "internalType": "bytes32",
                    "name": "",
                    "type": "bytes32"
                }
            ],
            "stateMutability": "view",
            "type": "function"
        },
        {
            "inputs": [
                {
                    "components": [
                        {
                            "internalType": "address",
                            "name": "from",
                            "type": "address"
                        },
                        {
                            "internalType": "uint256",
                            "name": "nonce",
                            "type": "uint256"
                        },
                        {
                            "internalType": "bytes",
                            "name": "data",
                            "type": "bytes"
                        }
                    ],
                    "internalType": "struct MetaTxReceiver.ForwardRequest",
                    "name": "req",
                    "type": "tuple"
                },
                {
                    "internalType": "bytes",
                    "name": "signature",
                    "type": "bytes"
                }
            ],
            "name": "metaTxRollupU256CondEq",
            "outputs": [
                {
                    "internalType": "bool",
                    "name": "",
                    "type": "bool"
                }
            ],
            "stateMutability": "nonpayable",
            "type": "function"
        },
        {
            "inputs": [
                {
                    "components": [
                        {
                            "internalType": "address",
                            "name": "from",
                            "type": "address"
                        },
                        {
                            "internalType": "uint256",
                            "name": "nonce",
                            "type": "uint256"
                        },
                        {
                            "internalType": "bytes",
                            "name": "data",
                            "type": "bytes"
                        }
                    ],
                    "internalType": "struct MetaTxReceiver.ForwardRequest",
                    "name": "req",
                    "type": "tuple"
                },
                {
                    "internalType": "bytes",
                    "name": "signature",
                    "type": "bytes"
                }
            ],
            "name": "metaTxVerify",
            "outputs": [
                {
                    "internalType": "bool",
                    "name": "",
                    "type": "bool"
                }
            ],
            "stateMutability": "view",
            "type": "function"
        },
        {
            "inputs": [],
            "name": "owner",
            "outputs": [
                {
                    "internalType": "address",
                    "name": "",
                    "type": "address"
                }
            ],
            "stateMutability": "view",
            "type": "function"
        },
        {
            "inputs": [
                {
                    "internalType": "enum TestLensApiConsumerContract.Range",
                    "name": "_betRange",
                    "type": "uint8"
                }
            ],
            "name": "placeBet",
            "outputs": [],
            "stateMutability": "payable",
            "type": "function"
        },
        {
            "inputs": [
                {
                    "internalType": "bytes",
                    "name": "key",
                    "type": "bytes"
                }
            ],
            "name": "queueGetBytes",
            "outputs": [
                {
                    "internalType": "bytes",
                    "name": "",
                    "type": "bytes"
                }
            ],
            "stateMutability": "view",
            "type": "function"
        },
        {
            "inputs": [],
            "name": "queueGetPrefix",
            "outputs": [
                {
                    "internalType": "bytes",
                    "name": "",
                    "type": "bytes"
                }
            ],
            "stateMutability": "pure",
            "type": "function"
        },
        {
            "inputs": [
                {
                    "internalType": "bytes",
                    "name": "key",
                    "type": "bytes"
                }
            ],
            "name": "queueGetUint",
            "outputs": [
                {
                    "internalType": "uint32",
                    "name": "",
                    "type": "uint32"
                }
            ],
            "stateMutability": "view",
            "type": "function"
        },
        {
            "inputs": [],
            "name": "renounceOwnership",
            "outputs": [],
            "stateMutability": "nonpayable",
            "type": "function"
        },
        {
            "inputs": [
                {
                    "internalType": "bytes32",
                    "name": "role",
                    "type": "bytes32"
                },
                {
                    "internalType": "address",
                    "name": "account",
                    "type": "address"
                }
            ],
            "name": "renounceRole",
            "outputs": [],
            "stateMutability": "nonpayable",
            "type": "function"
        },
        {
            "inputs": [
                {
                    "internalType": "string",
                    "name": "profileId",
                    "type": "string"
                }
            ],
            "name": "request",
            "outputs": [],
            "stateMutability": "nonpayable",
            "type": "function"
        },
        {
            "inputs": [
                {
                    "internalType": "bytes32",
                    "name": "role",
                    "type": "bytes32"
                },
                {
                    "internalType": "address",
                    "name": "account",
                    "type": "address"
                }
            ],
            "name": "revokeRole",
            "outputs": [],
            "stateMutability": "nonpayable",
            "type": "function"
        },
        {
            "inputs": [
                {
                    "internalType": "bytes[]",
                    "name": "condKeys",
                    "type": "bytes[]"
                },
                {
                    "internalType": "bytes[]",
                    "name": "condValues",
                    "type": "bytes[]"
                },
                {
                    "internalType": "bytes[]",
                    "name": "updateKeys",
                    "type": "bytes[]"
                },
                {
                    "internalType": "bytes[]",
                    "name": "updateValues",
                    "type": "bytes[]"
                },
                {
                    "internalType": "bytes[]",
                    "name": "actions",
                    "type": "bytes[]"
                }
            ],
            "name": "rollupU256CondEq",
            "outputs": [
                {
                    "internalType": "bool",
                    "name": "",
                    "type": "bool"
                }
            ],
            "stateMutability": "nonpayable",
            "type": "function"
        },
        {
            "inputs": [
                {
                    "internalType": "address",
                    "name": "phatAttestor",
                    "type": "address"
                }
            ],
            "name": "setAttestor",
            "outputs": [],
            "stateMutability": "nonpayable",
            "type": "function"
        },
        {
            "inputs": [
                {
                    "internalType": "bytes4",
                    "name": "interfaceId",
                    "type": "bytes4"
                }
            ],
            "name": "supportsInterface",
            "outputs": [
                {
                    "internalType": "bool",
                    "name": "",
                    "type": "bool"
                }
            ],
            "stateMutability": "view",
            "type": "function"
        },
        {
            "inputs": [
                {
                    "internalType": "bytes",
                    "name": "_bytes",
                    "type": "bytes"
                }
            ],
            "name": "toUint32Strict",
            "outputs": [
                {
                    "internalType": "uint32",
                    "name": "",
                    "type": "uint32"
                }
            ],
            "stateMutability": "pure",
            "type": "function"
        },
        {
            "inputs": [
                {
                    "internalType": "address",
                    "name": "newOwner",
                    "type": "address"
                }
            ],
            "name": "transferOwnership",
            "outputs": [],
            "stateMutability": "nonpayable",
            "type": "function"
        }
    ],
    "bytecode": "0x61014060405260016007553480156200001757600080fd5b506040516200630a3803806200630a83398181016040528101906200003d91906200048d565b6040518060400160405280601881526020017f50686174526f6c6c75704d6574615478526563656976657200000000000000008152506040518060400160405280600581526020017f302e302e31000000000000000000000000000000000000000000000000000000815250600160008190555060008280519060200120905060008280519060200120905060007f8b73c3c69bb8fe3d512ecc4cf759cc79239f7b179b0ffacaa9a75d522b39400f90508260e081815250508161010081815250504660a081815250506200011a818484620001bc60201b60201c565b608081815250503073ffffffffffffffffffffffffffffffffffffffff1660c08173ffffffffffffffffffffffffffffffffffffffff168152505080610120818152505050505050506200018362000177620001f860201b60201c565b6200020060201b60201c565b620001b57fa7e0cd0f2772b23ee4c329892293a6bd99d48c306b094d6d008c9a8bb8b731e482620002c660201b60201c565b5062000563565b60008383834630604051602001620001d995949392919062000506565b6040516020818303038152906040528051906020012090509392505050565b600033905090565b6000600460009054906101000a900473ffffffffffffffffffffffffffffffffffffffff16905081600460006101000a81548173ffffffffffffffffffffffffffffffffffffffff021916908373ffffffffffffffffffffffffffffffffffffffff1602179055508173ffffffffffffffffffffffffffffffffffffffff168173ffffffffffffffffffffffffffffffffffffffff167f8be0079c531659141344cd1fd0a4f28419497f9722a3daafe3b4186f6b6457e060405160405180910390a35050565b620002d88282620003b860201b60201c565b620003b45760016002600084815260200190815260200160002060000160008373ffffffffffffffffffffffffffffffffffffffff1673ffffffffffffffffffffffffffffffffffffffff16815260200190815260200160002060006101000a81548160ff02191690831515021790555062000359620001f860201b60201c565b73ffffffffffffffffffffffffffffffffffffffff168173ffffffffffffffffffffffffffffffffffffffff16837f2f8788117e7eff1d82e926ec794901d17c78024a50270940304540a733656f0d60405160405180910390a45b5050565b60006002600084815260200190815260200160002060000160008373ffffffffffffffffffffffffffffffffffffffff1673ffffffffffffffffffffffffffffffffffffffff16815260200190815260200160002060009054906101000a900460ff16905092915050565b600080fd5b600073ffffffffffffffffffffffffffffffffffffffff82169050919050565b6000620004558262000428565b9050919050565b620004678162000448565b81146200047357600080fd5b50565b60008151905062000487816200045c565b92915050565b600060208284031215620004a657620004a562000423565b5b6000620004b68482850162000476565b91505092915050565b6000819050919050565b620004d481620004bf565b82525050565b6000819050919050565b620004ef81620004da565b82525050565b620005008162000448565b82525050565b600060a0820190506200051d6000830188620004c9565b6200052c6020830187620004c9565b6200053b6040830186620004c9565b6200054a6060830185620004e4565b620005596080830184620004f5565b9695505050505050565b60805160a05160c05160e0516101005161012051615d57620005b3600039600061290501526000612947015260006129260152600061285b015260006128b1015260006128da0152615d576000f3fe6080604052600436106101ee5760003560e01c80638da5cb5b1161010d578063af762038116100a0578063d547741f1161006f578063d547741f14610769578063d7f5997214610792578063f2fde38b146107bb578063f4034a96146107e4578063f5770b1f14610821576101ee565b8063af76203814610687578063bbbfe446146106b2578063caa0ff21146106ef578063ce734b101461072c576101ee565b8063a217fddf116100dc578063a217fddf146105b7578063a51831a8146105e2578063a73644131461061f578063ad0bc4641461064a576101ee565b80638da5cb5b146104e757806391d14854146105125780639b1d96921461054f5780639df733681461058c576101ee565b8063430468441161018557806362723644116101545780636272364414610451578063715018a61461047c5780638180da2b14610493578063843739cd146104bc576101ee565b8063430468441461038f5780634f6e590e146103ab5780635232f0d7146103d65780635311613714610414576101ee565b80632c199889116101c15780632c199889146102e95780632f2ff15d1461031257806335a5cfcb1461033b57806336568abe14610366576101ee565b806301ffc9a7146101f357806322af00fa1461023057806322dae16c1461026e578063248a9ca3146102ac575b600080fd5b3480156101ff57600080fd5b5061021a6004803603810190610215919061397b565b61084a565b60405161022791906139c3565b60405180910390f35b34801561023c57600080fd5b5061025760048036038101906102529190613a14565b6108c4565b604051610265929190613af9565b60405180910390f35b34801561027a57600080fd5b5061029560048036038101906102909190613bc5565b610921565b6040516102a3929190613d50565b60405180910390f35b3480156102b857600080fd5b506102d360048036038101906102ce9190613dac565b610aea565b6040516102e09190613dd9565b60405180910390f35b3480156102f557600080fd5b50610310600480360381019061030b9190613e4a565b610b0a565b005b34801561031e57600080fd5b5061033960048036038101906103349190613e97565b610b80565b005b34801561034757600080fd5b50610350610ba1565b60405161035d9190613f21565b60405180910390f35b34801561037257600080fd5b5061038d60048036038101906103889190613e97565b610c5c565b005b6103a960048036038101906103a49190613f68565b610cdf565b005b3480156103b757600080fd5b506103c0610e3e565b6040516103cd9190613fb4565b60405180910390f35b3480156103e257600080fd5b506103fd60048036038101906103f89190613fcf565b610e88565b60405161040b929190613d50565b60405180910390f35b34801561042057600080fd5b5061043b6004803603810190610436919061415f565b610ee9565b6040516104489190613fb4565b60405180910390f35b34801561045d57600080fd5b50610466610f64565b6040516104739190613dd9565b60405180910390f35b34801561048857600080fd5b50610491610f88565b005b34801561049f57600080fd5b506104ba60048036038101906104b59190613a14565b610f9c565b005b3480156104c857600080fd5b506104d16112ed565b6040516104de9190613f21565b60405180910390f35b3480156104f357600080fd5b506104fc61132a565b60405161050991906141b7565b60405180910390f35b34801561051e57600080fd5b5061053960048036038101906105349190613e97565b611354565b60405161054691906139c3565b60405180910390f35b34801561055b57600080fd5b506105766004803603810190610571919061415f565b6113bf565b6040516105839190613f21565b60405180910390f35b34801561059857600080fd5b506105a16114cb565b6040516105ae9190613fb4565b60405180910390f35b3480156105c357600080fd5b506105cc611515565b6040516105d99190613dd9565b60405180910390f35b3480156105ee57600080fd5b5061060960048036038101906106049190614228565b61151c565b60405161061691906139c3565b60405180910390f35b34801561062b57600080fd5b506106346115da565b6040516106419190613f21565b60405180910390f35b34801561065657600080fd5b50610671600480360381019061066c9190614369565b6116a6565b60405161067e91906139c3565b60405180910390f35b34801561069357600080fd5b5061069c6118b4565b6040516106a99190613f21565b60405180910390f35b3480156106be57600080fd5b506106d960048036038101906106d49190614369565b611980565b6040516106e691906139c3565b60405180910390f35b3480156106fb57600080fd5b506107166004803603810190610711919061415f565b611b16565b6040516107239190613f21565b60405180910390f35b34801561073857600080fd5b50610753600480360381019061074e919061415f565b611bc6565b6040516107609190613fb4565b60405180910390f35b34801561077557600080fd5b50610790600480360381019061078b9190613e97565b611cd9565b005b34801561079e57600080fd5b506107b960048036038101906107b491906143e5565b611cfa565b005b3480156107c757600080fd5b506107e260048036038101906107dd9190614432565b611dc4565b005b3480156107f057600080fd5b5061080b60048036038101906108069190614432565b611e47565b604051610818919061446e565b60405180910390f35b34801561082d57600080fd5b5061084860048036038101906108439190614432565b611e90565b005b60007f7965db0b000000000000000000000000000000000000000000000000000000007bffffffffffffffffffffffffffffffffffffffffffffffffffffffff1916827bffffffffffffffffffffffffffffffffffffffffffffffffffffffff191614806108bd57506108bc82611ebd565b5b9050919050565b600581815481106108d457600080fd5b906000526020600020016000915090508060000160009054906101000a900473ffffffffffffffffffffffffffffffffffffffff16908060000160149054906101000a900460ff16905082565b61092961377c565b6000600160008773ffffffffffffffffffffffffffffffffffffffff1673ffffffffffffffffffffffffffffffffffffffff168152602001908152602001600020548310156109f05782600160008873ffffffffffffffffffffffffffffffffffffffff1673ffffffffffffffffffffffffffffffffffffffff168152602001908152602001600020546040517f045f356c0000000000000000000000000000000000000000000000000000000081526004016109e7929190614489565b60405180910390fd5b600060405180606001604052808873ffffffffffffffffffffffffffffffffffffffff16815260200185815260200187878080601f016020809104026020016040519081016040528093929190818152602001838380828437600081840152601f19601f8201169050808301925050505050505081525090506000610ad77f2c521d146a6f6c09462cb178367b028f1718b1f01d7995bb405dae702c2bee7d89878a8a604051610aa19291906144e2565b6040518091039020604051602001610abc94939291906144fb565b60405160208183030381529060405280519060200120611f27565b9050818193509350505094509492505050565b600060026000838152602001908152602001600020600101549050919050565b600060075490508282600660008481526020019081526020016000209182610b33929190614757565b50610b60818484604051602001610b4c93929190614865565b604051602081830303815290604052611f41565b50600160076000828254610b7491906148c6565b92505081905550505050565b610b8982610aea565b610b9281612040565b610b9c8383612054565b505050565b60606000610bad6118b4565b9050600381604051610bbf919061492b565b90815260200160405180910390208054610bd89061457a565b80601f0160208091040260200160405190810160405280929190818152602001828054610c049061457a565b8015610c515780601f10610c2657610100808354040283529160200191610c51565b820191906000526020600020905b815481529060010190602001808311610c3457829003601f168201915b505050505091505090565b610c64612135565b73ffffffffffffffffffffffffffffffffffffffff168173ffffffffffffffffffffffffffffffffffffffff1614610cd1576040517f08c379a0000000000000000000000000000000000000000000000000000000008152600401610cc8906149b4565b60405180910390fd5b610cdb828261213d565b5050565b66038d7ea4c68000341015610d29576040517f08c379a0000000000000000000000000000000000000000000000000000000008152600401610d2090614a20565b60405180910390fd5b610d316137b3565b33816000019073ffffffffffffffffffffffffffffffffffffffff16908173ffffffffffffffffffffffffffffffffffffffff16815250508181602001906004811115610d8157610d80613a82565b5b90816004811115610d9557610d94613a82565b5b815250506005819080600181540180825580915050600190039060005260206000200160009091909190915060008201518160000160006101000a81548173ffffffffffffffffffffffffffffffffffffffff021916908373ffffffffffffffffffffffffffffffffffffffff16021790555060208201518160000160146101000a81548160ff02191690836004811115610e3357610e32613a82565b5b021790555050505050565b600080610e7f6040518060400160405280600581526020017f5f7461696c000000000000000000000000000000000000000000000000000000815250611bc6565b90508091505090565b610e9061377c565b6000610edd858585600160008a73ffffffffffffffffffffffffffffffffffffffff1673ffffffffffffffffffffffffffffffffffffffff16815260200190815260200160002054610921565b91509150935093915050565b600080825103610efc5760009050610f5f565b6020825114610f4257816040517f3d7dc906000000000000000000000000000000000000000000000000000000008152600401610f399190613f21565b60405180910390fd5b600082806020019051810190610f589190614a6c565b9050809150505b919050565b7fa7e0cd0f2772b23ee4c329892293a6bd99d48c306b094d6d008c9a8bb8b731e481565b610f9061221f565b610f9a600061229d565b565b6000610fdd6040518060400160405280600a81526020017f4e756d6265723a2025730000000000000000000000000000000000000000000081525083612363565b60018210158015610fef575060648211155b15610ffd576000905061106a565b6065821015801561101057506103e88211155b1561101e5760019050611069565b6103e9821015801561103257506113888211155b156110405760029050611068565b611389821015801561105457506127108211155b156110625760039050611067565b600490505b5b5b5b6000805b6005805490508110156111355782600481111561108e5761108d613a82565b5b600582815481106110a2576110a1614a99565b5b9060005260206000200160000160149054906101000a900460ff1660048111156110cf576110ce613a82565b5b036111225781806110df90614ac8565b9250506111216040518060400160405280601681526020017f476f696e67207468726f75676820626574733a2025730000000000000000000081525083612363565b5b808061112d90614ac8565b91505061106e565b50600081036111835761117c6040518060400160405280600a81526020017f4e6f2077696e6e657273000000000000000000000000000000000000000000008152506123ff565b50506112ea565b600081476111919190614b3f565b90506111d26040518060400160405280601481526020017f5072697a65207065722077696e6e65723a20257300000000000000000000000081525082612363565b60005b6005805490508110156112d7578360048111156111f5576111f4613a82565b5b6005828154811061120957611208614a99565b5b9060005260206000200160000160149054906101000a900460ff16600481111561123657611235613a82565b5b036112c4576005818154811061124f5761124e614a99565b5b9060005260206000200160000160009054906101000a900473ffffffffffffffffffffffffffffffffffffffff1673ffffffffffffffffffffffffffffffffffffffff166108fc839081150290604051600060405180830381858888f193505050501580156112c2573d6000803e3d6000fd5b505b80806112cf90614ac8565b9150506111d5565b50600560006112e691906137f5565b5050505b50565b60606040518060400160405280600281526020017f712f000000000000000000000000000000000000000000000000000000000000815250905090565b6000600460009054906101000a900473ffffffffffffffffffffffffffffffffffffffff16905090565b60006002600084815260200190815260200160002060000160008373ffffffffffffffffffffffffffffffffffffffff1673ffffffffffffffffffffffffffffffffffffffff16815260200190815260200160002060009054906101000a900460ff16905092915050565b606060006040518060400160405280600281526020017f712f0000000000000000000000000000000000000000000000000000000000008152508360405160200161140b929190614b70565b604051602081830303815290604052905060038160405161142c919061492b565b908152602001604051809103902080546114459061457a565b80601f01602080910402602001604051908101604052809291908181526020018280546114719061457a565b80156114be5780601f10611493576101008083540402835291602001916114be565b820191906000526020600020905b8154815290600101906020018083116114a157829003601f168201915b5050505050915050919050565b60008061150c6040518060400160405280600581526020017f5f68656164000000000000000000000000000000000000000000000000000000815250611bc6565b90508091505090565b6000801b81565b60003073ffffffffffffffffffffffffffffffffffffffff163373ffffffffffffffffffffffffffffffffffffffff1614158015611581575061157f7fa7e0cd0f2772b23ee4c329892293a6bd99d48c306b094d6d008c9a8bb8b731e433611354565b155b156115b8576040517f20d82bef00000000000000000000000000000000000000000000000000000000815260040160405180910390fd5b6115ca8b8b8b8b8b8b8b8b8b8b612498565b90509a9950505050505050505050565b6060600061161c6040518060400160405280600581526020017f5f7461696c000000000000000000000000000000000000000000000000000000815250611bc6565b90506000816040516020016116319190613fb4565b604051602081830303815290604052905060006040518060400160405280600281526020017f712f0000000000000000000000000000000000000000000000000000000000008152508260405160200161168c929190614b70565b604051602081830303815290604052905080935050505090565b60008383836116b6838383611980565b6116ec576040517fbde0493900000000000000000000000000000000000000000000000000000000815260040160405180910390fd5b600183602001356116fd91906148c6565b600160008560000160208101906117149190614432565b73ffffffffffffffffffffffffffffffffffffffff1673ffffffffffffffffffffffffffffffffffffffff1681526020019081526020016000208190555061178e7fa7e0cd0f2772b23ee4c329892293a6bd99d48c306b094d6d008c9a8bb8b731e48860000160208101906117899190614432565b611354565b6117c4576040517f20d82bef00000000000000000000000000000000000000000000000000000000815260040160405180910390fd5b60008060008060008b80604001906117dc9190614ba3565b8101906117e99190614ce7565b945094509450945094507fd51c7c5244bba290f6c37777de0bc20a70c18abd55539658bc63251379297dcd60405160405180910390a13073ffffffffffffffffffffffffffffffffffffffff1663a51831a886868686866040518663ffffffff1660e01b8152600401611860959493929190614eb0565b6020604051808303816000875af115801561187f573d6000803e3d6000fd5b505050506040513d601f19601f820116820180604052508101906118a39190614f52565b985050505050505050509392505050565b606060006118f66040518060400160405280600581526020017f5f68656164000000000000000000000000000000000000000000000000000000815250611bc6565b905060008160405160200161190b9190613fb4565b604051602081830303815290604052905060006040518060400160405280600281526020017f712f00000000000000000000000000000000000000000000000000000000000081525082604051602001611966929190614b70565b604051602081830303815290604052905080935050505090565b600080611a6984848080601f016020809104026020016040519081016040528093929190818152602001838380828437600081840152601f19601f82011690508083019250505050505050611a5b7f2c521d146a6f6c09462cb178367b028f1718b1f01d7995bb405dae702c2bee7d886000016020810190611a029190614432565b89602001358a8060400190611a179190614ba3565b604051611a259291906144e2565b6040518091039020604051602001611a4094939291906144fb565b60405160208183030381529060405280519060200120611f27565b61283090919063ffffffff16565b9050846020013560016000876000016020810190611a879190614432565b73ffffffffffffffffffffffffffffffffffffffff1673ffffffffffffffffffffffffffffffffffffffff16815260200190815260200160002054148015611b0c5750846000016020810190611add9190614432565b73ffffffffffffffffffffffffffffffffffffffff168173ffffffffffffffffffffffffffffffffffffffff16145b9150509392505050565b6060600382604051611b28919061492b565b90815260200160405180910390208054611b419061457a565b80601f0160208091040260200160405190810160405280929190818152602001828054611b6d9061457a565b8015611bba5780601f10611b8f57610100808354040283529160200191611bba565b820191906000526020600020905b815481529060010190602001808311611b9d57829003601f168201915b50505050509050919050565b6000806040518060400160405280600281526020017f712f00000000000000000000000000000000000000000000000000000000000081525083604051602001611c11929190614b70565b6040516020818303038152906040529050611cd1600382604051611c35919061492b565b90815260200160405180910390208054611c4e9061457a565b80601f0160208091040260200160405190810160405280929190818152602001828054611c7a9061457a565b8015611cc75780601f10611c9c57610100808354040283529160200191611cc7565b820191906000526020600020905b815481529060010190602001808311611caa57829003601f168201915b5050505050610ee9565b915050919050565b611ce282610aea565b611ceb81612040565b611cf5838361213d565b505050565b600060075490506040518060400160405280600d81526020017f6d616c666f726d65645f72657100000000000000000000000000000000000000815250600660008381526020019081526020016000209081611d569190614f8a565b50611da483838080601f016020809104026020016040519081016040528093929190818152602001838380828437600081840152601f19601f82011690508083019250505050505050611f41565b50600160076000828254611db891906148c6565b92505081905550505050565b611dcc61221f565b600073ffffffffffffffffffffffffffffffffffffffff168173ffffffffffffffffffffffffffffffffffffffff1603611e3b576040517f08c379a0000000000000000000000000000000000000000000000000000000008152600401611e32906150ce565b60405180910390fd5b611e448161229d565b50565b6000600160008373ffffffffffffffffffffffffffffffffffffffff1673ffffffffffffffffffffffffffffffffffffffff168152602001908152602001600020549050919050565b611eba7fa7e0cd0f2772b23ee4c329892293a6bd99d48c306b094d6d008c9a8bb8b731e482612054565b50565b60007f01ffc9a7000000000000000000000000000000000000000000000000000000007bffffffffffffffffffffffffffffffffffffffffffffffffffffffff1916827bffffffffffffffffffffffffffffffffffffffffffffffffffffffff1916149050919050565b6000611f3a611f34612857565b83612971565b9050919050565b600080611f826040518060400160405280600581526020017f5f7461696c000000000000000000000000000000000000000000000000000000815250611bc6565b9050600081604051602001611f979190613fb4565b6040516020818303038152906040529050611fb281856129a4565b611ffd6040518060400160405280600581526020017f5f7461696c000000000000000000000000000000000000000000000000000000815250600184611ff891906150ee565b612a30565b7f907e5e373368eaab41cf7fd560721ee39c92964cc7abc6eba2acb769b1f70799828560405161202e929190615157565b60405180910390a18192505050919050565b6120518161204c612135565b612adb565b50565b61205e8282611354565b6121315760016002600084815260200190815260200160002060000160008373ffffffffffffffffffffffffffffffffffffffff1673ffffffffffffffffffffffffffffffffffffffff16815260200190815260200160002060006101000a81548160ff0219169083151502179055506120d6612135565b73ffffffffffffffffffffffffffffffffffffffff168173ffffffffffffffffffffffffffffffffffffffff16837f2f8788117e7eff1d82e926ec794901d17c78024a50270940304540a733656f0d60405160405180910390a45b5050565b600033905090565b6121478282611354565b1561221b5760006002600084815260200190815260200160002060000160008373ffffffffffffffffffffffffffffffffffffffff1673ffffffffffffffffffffffffffffffffffffffff16815260200190815260200160002060006101000a81548160ff0219169083151502179055506121c0612135565b73ffffffffffffffffffffffffffffffffffffffff168173ffffffffffffffffffffffffffffffffffffffff16837ff6391f5c32d9c69d2a47ea670b442974b53935d1edc7fd64eb21e047a839171b60405160405180910390a45b5050565b612227612135565b73ffffffffffffffffffffffffffffffffffffffff1661224561132a565b73ffffffffffffffffffffffffffffffffffffffff161461229b576040517f08c379a0000000000000000000000000000000000000000000000000000000008152600401612292906151d3565b60405180910390fd5b565b6000600460009054906101000a900473ffffffffffffffffffffffffffffffffffffffff16905081600460006101000a81548173ffffffffffffffffffffffffffffffffffffffff021916908373ffffffffffffffffffffffffffffffffffffffff1602179055508173ffffffffffffffffffffffffffffffffffffffff168173ffffffffffffffffffffffffffffffffffffffff167f8be0079c531659141344cd1fd0a4f28419497f9722a3daafe3b4186f6b6457e060405160405180910390a35050565b6123fb828260405160240161237992919061522c565b6040516020818303038152906040527fb60e72cc000000000000000000000000000000000000000000000000000000007bffffffffffffffffffffffffffffffffffffffffffffffffffffffff19166020820180517bffffffffffffffffffffffffffffffffffffffffffffffffffffffff8381831617835250505050612b60565b5050565b61249581604051602401612413919061525c565b6040516020818303038152906040527f41304fac000000000000000000000000000000000000000000000000000000007bffffffffffffffffffffffffffffffffffffffffffffffffffffffff19166020820180517bffffffffffffffffffffffffffffffffffffffffffffffffffffffff8381831617835250505050612b60565b50565b60006124a2612b7a565b888890508b8b9050146124f4578a8a9050898990506040517f60e568880000000000000000000000000000000000000000000000000000000081526004016124eb929190614489565b60405180910390fd5b8484905087879050146125465786869050858590506040517fcca1bd4200000000000000000000000000000000000000000000000000000000815260040161253d929190614489565b60405180910390fd5b60005b8b8b905081101561272e57600061262a60038e8e8581811061256e5761256d614a99565b5b90506020028101906125809190614ba3565b60405161258e9291906144e2565b908152602001604051809103902080546125a79061457a565b80601f01602080910402602001604051908101604052809291908181526020018280546125d39061457a565b80156126205780601f106125f557610100808354040283529160200191612620565b820191906000526020600020905b81548152906001019060200180831161260357829003601f168201915b5050505050610ee9565b9050600061269e8c8c8581811061264457612643614a99565b5b90506020028101906126569190614ba3565b8080601f016020809104026020016040519081016040528093929190818152602001838380828437600081840152601f19601f82011690508083019250505050505050610ee9565b90508063ffffffff168263ffffffff1614612719578d8d848181106126c6576126c5614a99565b5b90506020028101906126d89190614ba3565b82846040517fb2e58ea600000000000000000000000000000000000000000000000000000000815260040161271094939291906152ab565b60405180910390fd5b5050808061272690614ac8565b915050612549565b5060005b878790508110156127c6578585828181106127505761274f614a99565b5b90506020028101906127629190614ba3565b60038a8a8581811061277757612776614a99565b5b90506020028101906127899190614ba3565b6040516127979291906144e2565b908152602001604051809103902091826127b2929190615351565b5080806127be90614ac8565b915050612732565b5060005b83839050811015612815576128028484838181106127eb576127ea614a99565b5b90506020028101906127fd9190614ba3565b612bc9565b808061280d90614ac8565b9150506127ca565b5060019050612822612e44565b9a9950505050505050505050565b600080600061283f8585612e4e565b9150915061284c81612e9f565b819250505092915050565b60007f000000000000000000000000000000000000000000000000000000000000000073ffffffffffffffffffffffffffffffffffffffff163073ffffffffffffffffffffffffffffffffffffffff161480156128d357507f000000000000000000000000000000000000000000000000000000000000000046145b15612900577f0000000000000000000000000000000000000000000000000000000000000000905061296e565b61296b7f00000000000000000000000000000000000000000000000000000000000000007f00000000000000000000000000000000000000000000000000000000000000007f0000000000000000000000000000000000000000000000000000000000000000613005565b90505b90565b60008282604051602001612986929190615499565b60405160208183030381529060405280519060200120905092915050565b60006040518060400160405280600281526020017f712f000000000000000000000000000000000000000000000000000000000000815250836040516020016129ee929190614b70565b604051602081830303815290604052905081600382604051612a10919061492b565b90815260200160405180910390209081612a2a91906154d0565b50505050565b60006040518060400160405280600281526020017f712f00000000000000000000000000000000000000000000000000000000000081525083604051602001612a7a929190614b70565b604051602081830303815290604052905081604051602001612a9c9190613fb4565b604051602081830303815290604052600382604051612abb919061492b565b90815260200160405180910390209081612ad591906154d0565b50505050565b612ae58282611354565b612b5c57612af28161303f565b612b008360001c602061306c565b604051602001612b1192919061566b565b6040516020818303038152906040526040517f08c379a0000000000000000000000000000000000000000000000000000000008152600401612b53919061525c565b60405180910390fd5b5050565b612b7781612b6f6132a86132c9565b63ffffffff16565b50565b600260005403612bbf576040517f08c379a0000000000000000000000000000000000000000000000000000000008152600401612bb6906156f1565b60405180910390fd5b6002600081905550565b600082826000818110612bdf57612bde614a99565b5b9050013560f81c60f81b60f81c9050600060ff168160ff1603612c1c57612c1783836001908092612c129392919061571b565b6132d4565b612e3f565b600160ff168160ff1603612ca7576021838390501015612c745760016040517f565ba7b9000000000000000000000000000000000000000000000000000000008152600401612c6b9190615772565b60405180910390fd5b600083836001908092612c899392919061571b565b810190612c9691906157a2565b9050612ca181613469565b50612e3e565b600a60ff168160ff1603612d53576015838390501015612cff57600a6040517f565ba7b9000000000000000000000000000000000000000000000000000000008152600401612cf69190615772565b60405180910390fd5b600083836001908092612d149392919061571b565b810190612d2191906157fb565b9050612d4d7fa7e0cd0f2772b23ee4c329892293a6bd99d48c306b094d6d008c9a8bb8b731e482612054565b50612e3d565b600b60ff168160ff1603612dff576015838390501015612dab57600b6040517f565ba7b9000000000000000000000000000000000000000000000000000000008152600401612da29190615772565b60405180910390fd5b600083836001908092612dc09392919061571b565b810190612dcd91906157fb565b9050612df97fa7e0cd0f2772b23ee4c329892293a6bd99d48c306b094d6d008c9a8bb8b731e48261213d565b50612e3c565b806040517f0e8b3d1d000000000000000000000000000000000000000000000000000000008152600401612e339190615772565b60405180910390fd5b5b5b5b505050565b6001600081905550565b6000806041835103612e8f5760008060006020860151925060408601519150606086015160001a9050612e83878285856135ec565b94509450505050612e98565b60006002915091505b9250929050565b60006004811115612eb357612eb2613a82565b5b816004811115612ec657612ec5613a82565b5b03156130025760016004811115612ee057612edf613a82565b5b816004811115612ef357612ef2613a82565b5b03612f33576040517f08c379a0000000000000000000000000000000000000000000000000000000008152600401612f2a90615874565b60405180910390fd5b60026004811115612f4757612f46613a82565b5b816004811115612f5a57612f59613a82565b5b03612f9a576040517f08c379a0000000000000000000000000000000000000000000000000000000008152600401612f91906158e0565b60405180910390fd5b60036004811115612fae57612fad613a82565b5b816004811115612fc157612fc0613a82565b5b03613001576040517f08c379a0000000000000000000000000000000000000000000000000000000008152600401612ff890615972565b60405180910390fd5b5b50565b60008383834630604051602001613020959493929190615992565b6040516020818303038152906040528051906020012090509392505050565b60606130658273ffffffffffffffffffffffffffffffffffffffff16601460ff1661306c565b9050919050565b60606000600283600261307f91906159e5565b61308991906148c6565b67ffffffffffffffff8111156130a2576130a1614034565b5b6040519080825280601f01601f1916602001820160405280156130d45781602001600182028036833780820191505090505b5090507f30000000000000000000000000000000000000000000000000000000000000008160008151811061310c5761310b614a99565b5b60200101907effffffffffffffffffffffffffffffffffffffffffffffffffffffffffffff1916908160001a9053507f7800000000000000000000000000000000000000000000000000000000000000816001815181106131705761316f614a99565b5b60200101907effffffffffffffffffffffffffffffffffffffffffffffffffffffffffffff1916908160001a905350600060018460026131b091906159e5565b6131ba91906148c6565b90505b600181111561325a577f3031323334353637383961626364656600000000000000000000000000000000600f8616601081106131fc576131fb614a99565b5b1a60f81b82828151811061321357613212614a99565b5b60200101907effffffffffffffffffffffffffffffffffffffffffffffffffffffffffffff1916908160001a905350600485901c94508061325390615a27565b90506131bd565b506000841461329e576040517f08c379a000000000000000000000000000000000000000000000000000000000815260040161329590615a9c565b60405180910390fd5b8091505092915050565b60006a636f6e736f6c652e6c6f679050600080835160208501845afa505050565b613816819050919050565b6060828290501461331a576040517f08c379a000000000000000000000000000000000000000000000000000000000815260040161331190615b08565b60405180910390fd5b6000806000848481019061332e9190615b28565b925092509250600083036133ec577ff9b3514f98ccd2df465094f95372549d36ff3e87827462e5395ff75ffed3d9ab82600660008581526020019081526020016000208360405161338193929190615bff565b60405180910390a16006600083815260200190815260200160002060006133a89190613820565b6133e76040518060400160405280601581526020017f526573706f6e73652072656365697665643a202573000000000000000000000081525082612363565b613462565b60028303613461577f0c160f4f90c8f4cd8d3157735015428d4f21ef52edff7dcf93e5add4d0264b5182600660008581526020019081526020016000208360405161343993929190615bff565b60405180910390a16006600083815260200190815260200160002060006134609190613820565b5b5b5050505050565b60006134a96040518060400160405280600581526020017f5f7461696c000000000000000000000000000000000000000000000000000000815250611bc6565b90508063ffffffff168263ffffffff1611156134fe5781816040517f186c5d530000000000000000000000000000000000000000000000000000000081526004016134f5929190615c3d565b60405180910390fd5b600061353e6040518060400160405280600581526020017f5f68656164000000000000000000000000000000000000000000000000000000815250611bc6565b90505b8263ffffffff168163ffffffff1610156135715761355e816136ce565b808061356990615c66565b915050613541565b506135b16040518060400160405280600581526020017f5f6865616400000000000000000000000000000000000000000000000000000081525083612a30565b7f32fd4e5662a5d890e9d364f2b91716af396675b17d0d56aa259e0a42ca55751c826040516135e09190615c92565b60405180910390a15050565b6000807f7fffffffffffffffffffffffffffffff5d576e7357a4501ddfe92f46681b20a08360001c11156136275760006003915091506136c5565b60006001878787876040516000815260200160405260405161364c9493929190615cad565b6020604051602081039080840390855afa15801561366e573d6000803e3d6000fd5b505050602060405103519050600073ffffffffffffffffffffffffffffffffffffffff168173ffffffffffffffffffffffffffffffffffffffff16036136bc576000600192509250506136c5565b80600092509250505b94509492505050565b6000816040516020016136e19190613fb4565b604051602081830303815290604052905060006040518060400160405280600281526020017f712f0000000000000000000000000000000000000000000000000000000000008152508260405160200161373c929190614b70565b604051602081830303815290604052905060038160405161375d919061492b565b908152602001604051809103902060006137779190613860565b505050565b6040518060600160405280600073ffffffffffffffffffffffffffffffffffffffff16815260200160008152602001606081525090565b6040518060400160405280600073ffffffffffffffffffffffffffffffffffffffff168152602001600060048111156137ef576137ee613a82565b5b81525090565b508054600082559060005260206000209081019061381391906138a0565b50565b61381e615cf2565b565b50805461382c9061457a565b6000825580601f1061383e575061385d565b601f01602090049060005260206000209081019061385c91906138f2565b5b50565b50805461386c9061457a565b6000825580601f1061387e575061389d565b601f01602090049060005260206000209081019061389c91906138f2565b5b50565b5b808211156138ee57600080820160006101000a81549073ffffffffffffffffffffffffffffffffffffffff02191690556000820160146101000a81549060ff0219169055506001016138a1565b5090565b5b8082111561390b5760008160009055506001016138f3565b5090565b6000604051905090565b600080fd5b600080fd5b60007fffffffff0000000000000000000000000000000000000000000000000000000082169050919050565b61395881613923565b811461396357600080fd5b50565b6000813590506139758161394f565b92915050565b60006020828403121561399157613990613919565b5b600061399f84828501613966565b91505092915050565b60008115159050919050565b6139bd816139a8565b82525050565b60006020820190506139d860008301846139b4565b92915050565b6000819050919050565b6139f1816139de565b81146139fc57600080fd5b50565b600081359050613a0e816139e8565b92915050565b600060208284031215613a2a57613a29613919565b5b6000613a38848285016139ff565b91505092915050565b600073ffffffffffffffffffffffffffffffffffffffff82169050919050565b6000613a6c82613a41565b9050919050565b613a7c81613a61565b82525050565b7f4e487b7100000000000000000000000000000000000000000000000000000000600052602160045260246000fd5b60058110613ac257613ac1613a82565b5b50565b6000819050613ad382613ab1565b919050565b6000613ae382613ac5565b9050919050565b613af381613ad8565b82525050565b6000604082019050613b0e6000830185613a73565b613b1b6020830184613aea565b9392505050565b6000613b2d82613a41565b9050919050565b613b3d81613b22565b8114613b4857600080fd5b50565b600081359050613b5a81613b34565b92915050565b600080fd5b600080fd5b600080fd5b60008083601f840112613b8557613b84613b60565b5b8235905067ffffffffffffffff811115613ba257613ba1613b65565b5b602083019150836001820283011115613bbe57613bbd613b6a565b5b9250929050565b60008060008060608587031215613bdf57613bde613919565b5b6000613bed87828801613b4b565b945050602085013567ffffffffffffffff811115613c0e57613c0d61391e565b5b613c1a87828801613b6f565b93509350506040613c2d878288016139ff565b91505092959194509250565b613c4281613b22565b82525050565b613c51816139de565b82525050565b600081519050919050565b600082825260208201905092915050565b60005b83811015613c91578082015181840152602081019050613c76565b60008484015250505050565b6000601f19601f8301169050919050565b6000613cb982613c57565b613cc38185613c62565b9350613cd3818560208601613c73565b613cdc81613c9d565b840191505092915050565b6000606083016000830151613cff6000860182613c39565b506020830151613d126020860182613c48565b5060408301518482036040860152613d2a8282613cae565b9150508091505092915050565b6000819050919050565b613d4a81613d37565b82525050565b60006040820190508181036000830152613d6a8185613ce7565b9050613d796020830184613d41565b9392505050565b613d8981613d37565b8114613d9457600080fd5b50565b600081359050613da681613d80565b92915050565b600060208284031215613dc257613dc1613919565b5b6000613dd084828501613d97565b91505092915050565b6000602082019050613dee6000830184613d41565b92915050565b60008083601f840112613e0a57613e09613b60565b5b8235905067ffffffffffffffff811115613e2757613e26613b65565b5b602083019150836001820283011115613e4357613e42613b6a565b5b9250929050565b60008060208385031215613e6157613e60613919565b5b600083013567ffffffffffffffff811115613e7f57613e7e61391e565b5b613e8b85828601613df4565b92509250509250929050565b60008060408385031215613eae57613ead613919565b5b6000613ebc85828601613d97565b9250506020613ecd85828601613b4b565b9150509250929050565b600082825260208201905092915050565b6000613ef382613c57565b613efd8185613ed7565b9350613f0d818560208601613c73565b613f1681613c9d565b840191505092915050565b60006020820190508181036000830152613f3b8184613ee8565b905092915050565b60058110613f5057600080fd5b50565b600081359050613f6281613f43565b92915050565b600060208284031215613f7e57613f7d613919565b5b6000613f8c84828501613f53565b91505092915050565b600063ffffffff82169050919050565b613fae81613f95565b82525050565b6000602082019050613fc96000830184613fa5565b92915050565b600080600060408486031215613fe857613fe7613919565b5b6000613ff686828701613b4b565b935050602084013567ffffffffffffffff8111156140175761401661391e565b5b61402386828701613b6f565b92509250509250925092565b600080fd5b7f4e487b7100000000000000000000000000000000000000000000000000000000600052604160045260246000fd5b61406c82613c9d565b810181811067ffffffffffffffff8211171561408b5761408a614034565b5b80604052505050565b600061409e61390f565b90506140aa8282614063565b919050565b600067ffffffffffffffff8211156140ca576140c9614034565b5b6140d382613c9d565b9050602081019050919050565b82818337600083830152505050565b60006141026140fd846140af565b614094565b90508281526020810184848401111561411e5761411d61402f565b5b6141298482856140e0565b509392505050565b600082601f83011261414657614145613b60565b5b81356141568482602086016140ef565b91505092915050565b60006020828403121561417557614174613919565b5b600082013567ffffffffffffffff8111156141935761419261391e565b5b61419f84828501614131565b91505092915050565b6141b181613b22565b82525050565b60006020820190506141cc60008301846141a8565b92915050565b60008083601f8401126141e8576141e7613b60565b5b8235905067ffffffffffffffff81111561420557614204613b65565b5b60208301915083602082028301111561422157614220613b6a565b5b9250929050565b60008060008060008060008060008060a08b8d03121561424b5761424a613919565b5b60008b013567ffffffffffffffff8111156142695761426861391e565b5b6142758d828e016141d2565b9a509a505060208b013567ffffffffffffffff8111156142985761429761391e565b5b6142a48d828e016141d2565b985098505060408b013567ffffffffffffffff8111156142c7576142c661391e565b5b6142d38d828e016141d2565b965096505060608b013567ffffffffffffffff8111156142f6576142f561391e565b5b6143028d828e016141d2565b945094505060808b013567ffffffffffffffff8111156143255761432461391e565b5b6143318d828e016141d2565b92509250509295989b9194979a5092959850565b600080fd5b6000606082840312156143605761435f614345565b5b81905092915050565b60008060006040848603121561438257614381613919565b5b600084013567ffffffffffffffff8111156143a05761439f61391e565b5b6143ac8682870161434a565b935050602084013567ffffffffffffffff8111156143cd576143cc61391e565b5b6143d986828701613b6f565b92509250509250925092565b600080602083850312156143fc576143fb613919565b5b600083013567ffffffffffffffff81111561441a5761441961391e565b5b61442685828601613b6f565b92509250509250929050565b60006020828403121561444857614447613919565b5b600061445684828501613b4b565b91505092915050565b614468816139de565b82525050565b6000602082019050614483600083018461445f565b92915050565b600060408201905061449e600083018561445f565b6144ab602083018461445f565b9392505050565b600081905092915050565b60006144c983856144b2565b93506144d68385846140e0565b82840190509392505050565b60006144ef8284866144bd565b91508190509392505050565b60006080820190506145106000830187613d41565b61451d60208301866141a8565b61452a604083018561445f565b6145376060830184613d41565b95945050505050565b600082905092915050565b7f4e487b7100000000000000000000000000000000000000000000000000000000600052602260045260246000fd5b6000600282049050600182168061459257607f821691505b6020821081036145a5576145a461454b565b5b50919050565b60008190508160005260206000209050919050565b60006020601f8301049050919050565b600082821b905092915050565b60006008830261460d7fffffffffffffffffffffffffffffffffffffffffffffffffffffffffffffffff826145d0565b61461786836145d0565b95508019841693508086168417925050509392505050565b6000819050919050565b600061465461464f61464a846139de565b61462f565b6139de565b9050919050565b6000819050919050565b61466e83614639565b61468261467a8261465b565b8484546145dd565b825550505050565b600090565b61469761468a565b6146a2818484614665565b505050565b5b818110156146c6576146bb60008261468f565b6001810190506146a8565b5050565b601f82111561470b576146dc816145ab565b6146e5846145c0565b810160208510156146f4578190505b614708614700856145c0565b8301826146a7565b50505b505050565b600082821c905092915050565b600061472e60001984600802614710565b1980831691505092915050565b6000614747838361471d565b9150826002028217905092915050565b6147618383614540565b67ffffffffffffffff81111561477a57614779614034565b5b614784825461457a565b61478f8282856146ca565b6000601f8311600181146147be57600084156147ac578287013590505b6147b6858261473b565b86555061481e565b601f1984166147cc866145ab565b60005b828110156147f4578489013582556001820191506020850194506020810190506147cf565b86831015614811578489013561480d601f89168261471d565b8355505b6001600288020188555050505b50505050505050565b600082825260208201905092915050565b60006148448385614827565b93506148518385846140e0565b61485a83613c9d565b840190509392505050565b600060408201905061487a600083018661445f565b818103602083015261488d818486614838565b9050949350505050565b7f4e487b7100000000000000000000000000000000000000000000000000000000600052601160045260246000fd5b60006148d1826139de565b91506148dc836139de565b92508282019050808211156148f4576148f3614897565b5b92915050565b600061490582613c57565b61490f81856144b2565b935061491f818560208601613c73565b80840191505092915050565b600061493782846148fa565b915081905092915050565b7f416363657373436f6e74726f6c3a2063616e206f6e6c792072656e6f756e636560008201527f20726f6c657320666f722073656c660000000000000000000000000000000000602082015250565b600061499e602f83614827565b91506149a982614942565b604082019050919050565b600060208201905081810360008301526149cd81614991565b9050919050565b7f42657420616d6f756e742073686f756c6420626520302e303031206574686572600082015250565b6000614a0a602083614827565b9150614a15826149d4565b602082019050919050565b60006020820190508181036000830152614a39816149fd565b9050919050565b614a4981613f95565b8114614a5457600080fd5b50565b600081519050614a6681614a40565b92915050565b600060208284031215614a8257614a81613919565b5b6000614a9084828501614a57565b91505092915050565b7f4e487b7100000000000000000000000000000000000000000000000000000000600052603260045260246000fd5b6000614ad3826139de565b91507fffffffffffffffffffffffffffffffffffffffffffffffffffffffffffffffff8203614b0557614b04614897565b5b600182019050919050565b7f4e487b7100000000000000000000000000000000000000000000000000000000600052601260045260246000fd5b6000614b4a826139de565b9150614b55836139de565b925082614b6557614b64614b10565b5b828204905092915050565b6000614b7c82856148fa565b9150614b8882846148fa565b91508190509392505050565b600080fd5b600080fd5b600080fd5b60008083356001602003843603038112614bc057614bbf614b94565b5b80840192508235915067ffffffffffffffff821115614be257614be1614b99565b5b602083019250600182023603831315614bfe57614bfd614b9e565b5b509250929050565b600067ffffffffffffffff821115614c2157614c20614034565b5b602082029050602081019050919050565b6000614c45614c4084614c06565b614094565b90508083825260208201905060208402830185811115614c6857614c67613b6a565b5b835b81811015614caf57803567ffffffffffffffff811115614c8d57614c8c613b60565b5b808601614c9a8982614131565b85526020850194505050602081019050614c6a565b5050509392505050565b600082601f830112614cce57614ccd613b60565b5b8135614cde848260208601614c32565b91505092915050565b600080600080600060a08688031215614d0357614d02613919565b5b600086013567ffffffffffffffff811115614d2157614d2061391e565b5b614d2d88828901614cb9565b955050602086013567ffffffffffffffff811115614d4e57614d4d61391e565b5b614d5a88828901614cb9565b945050604086013567ffffffffffffffff811115614d7b57614d7a61391e565b5b614d8788828901614cb9565b935050606086013567ffffffffffffffff811115614da857614da761391e565b5b614db488828901614cb9565b925050608086013567ffffffffffffffff811115614dd557614dd461391e565b5b614de188828901614cb9565b9150509295509295909350565b600081519050919050565b600082825260208201905092915050565b6000819050602082019050919050565b6000614e268383613cae565b905092915050565b6000602082019050919050565b6000614e4682614dee565b614e508185614df9565b935083602082028501614e6285614e0a565b8060005b85811015614e9e5784840389528151614e7f8582614e1a565b9450614e8a83614e2e565b925060208a01995050600181019050614e66565b50829750879550505050505092915050565b600060a0820190508181036000830152614eca8188614e3b565b90508181036020830152614ede8187614e3b565b90508181036040830152614ef28186614e3b565b90508181036060830152614f068185614e3b565b90508181036080830152614f1a8184614e3b565b90509695505050505050565b614f2f816139a8565b8114614f3a57600080fd5b50565b600081519050614f4c81614f26565b92915050565b600060208284031215614f6857614f67613919565b5b6000614f7684828501614f3d565b91505092915050565b600081519050919050565b614f9382614f7f565b67ffffffffffffffff811115614fac57614fab614034565b5b614fb6825461457a565b614fc18282856146ca565b600060209050601f831160018114614ff45760008415614fe2578287015190505b614fec858261473b565b865550615054565b601f198416615002866145ab565b60005b8281101561502a57848901518255600182019150602085019450602081019050615005565b868310156150475784890151615043601f89168261471d565b8355505b6001600288020188555050505b505050505050565b7f4f776e61626c653a206e6577206f776e657220697320746865207a65726f206160008201527f6464726573730000000000000000000000000000000000000000000000000000602082015250565b60006150b8602683614827565b91506150c38261505c565b604082019050919050565b600060208201905081810360008301526150e7816150ab565b9050919050565b60006150f982613f95565b915061510483613f95565b9250828201905063ffffffff8111156151205761511f614897565b5b92915050565b600061514161513c61513784613f95565b61462f565b6139de565b9050919050565b61515181615126565b82525050565b600060408201905061516c6000830185615148565b818103602083015261517e8184613ee8565b90509392505050565b7f4f776e61626c653a2063616c6c6572206973206e6f7420746865206f776e6572600082015250565b60006151bd602083614827565b91506151c882615187565b602082019050919050565b600060208201905081810360008301526151ec816151b0565b9050919050565b60006151fe82614f7f565b6152088185614827565b9350615218818560208601613c73565b61522181613c9d565b840191505092915050565b6000604082019050818103600083015261524681856151f3565b9050615255602083018461445f565b9392505050565b6000602082019050818103600083015261527681846151f3565b905092915050565b600061528a8385613ed7565b93506152978385846140e0565b6152a083613c9d565b840190509392505050565b600060608201905081810360008301526152c681868861527e565b90506152d56020830185613fa5565b6152e26040830184613fa5565b95945050505050565b600082905092915050565b60008190508160005260206000209050919050565b601f82111561534c5761531d816152f6565b615326846145c0565b81016020851015615335578190505b615349615341856145c0565b8301826146a7565b50505b505050565b61535b83836152eb565b67ffffffffffffffff81111561537457615373614034565b5b61537e825461457a565b61538982828561530b565b6000601f8311600181146153b857600084156153a6578287013590505b6153b0858261473b565b865550615418565b601f1984166153c6866152f6565b60005b828110156153ee578489013582556001820191506020850194506020810190506153c9565b8683101561540b5784890135615407601f89168261471d565b8355505b6001600288020188555050505b50505050505050565b600081905092915050565b7f1901000000000000000000000000000000000000000000000000000000000000600082015250565b6000615462600283615421565b915061546d8261542c565b600282019050919050565b6000819050919050565b61549361548e82613d37565b615478565b82525050565b60006154a482615455565b91506154b08285615482565b6020820191506154c08284615482565b6020820191508190509392505050565b6154d982613c57565b67ffffffffffffffff8111156154f2576154f1614034565b5b6154fc825461457a565b61550782828561530b565b600060209050601f83116001811461553a5760008415615528578287015190505b615532858261473b565b86555061559a565b601f198416615548866152f6565b60005b828110156155705784890151825560018201915060208501945060208101905061554b565b8683101561558d5784890151615589601f89168261471d565b8355505b6001600288020188555050505b505050505050565b7f416363657373436f6e74726f6c3a206163636f756e7420000000000000000000600082015250565b60006155d8601783615421565b91506155e3826155a2565b601782019050919050565b60006155f982614f7f565b6156038185615421565b9350615613818560208601613c73565b80840191505092915050565b7f206973206d697373696e6720726f6c6520000000000000000000000000000000600082015250565b6000615655601183615421565b91506156608261561f565b601182019050919050565b6000615676826155cb565b915061568282856155ee565b915061568d82615648565b915061569982846155ee565b91508190509392505050565b7f5265656e7472616e637947756172643a207265656e7472616e742063616c6c00600082015250565b60006156db601f83614827565b91506156e6826156a5565b602082019050919050565b6000602082019050818103600083015261570a816156ce565b9050919050565b600080fd5b600080fd5b6000808585111561572f5761572e615711565b5b838611156157405761573f615716565b5b6001850283019150848603905094509492505050565b600060ff82169050919050565b61576c81615756565b82525050565b60006020820190506157876000830184615763565b92915050565b60008135905061579c81614a40565b92915050565b6000602082840312156157b8576157b7613919565b5b60006157c68482850161578d565b91505092915050565b6157d881613a61565b81146157e357600080fd5b50565b6000813590506157f5816157cf565b92915050565b60006020828403121561581157615810613919565b5b600061581f848285016157e6565b91505092915050565b7f45434453413a20696e76616c6964207369676e61747572650000000000000000600082015250565b600061585e601883614827565b915061586982615828565b602082019050919050565b6000602082019050818103600083015261588d81615851565b9050919050565b7f45434453413a20696e76616c6964207369676e6174757265206c656e67746800600082015250565b60006158ca601f83614827565b91506158d582615894565b602082019050919050565b600060208201905081810360008301526158f9816158bd565b9050919050565b7f45434453413a20696e76616c6964207369676e6174757265202773272076616c60008201527f7565000000000000000000000000000000000000000000000000000000000000602082015250565b600061595c602283614827565b915061596782615900565b604082019050919050565b6000602082019050818103600083015261598b8161594f565b9050919050565b600060a0820190506159a76000830188613d41565b6159b46020830187613d41565b6159c16040830186613d41565b6159ce606083018561445f565b6159db60808301846141a8565b9695505050505050565b60006159f0826139de565b91506159fb836139de565b9250828202615a09816139de565b91508282048414831517615a2057615a1f614897565b5b5092915050565b6000615a32826139de565b915060008203615a4557615a44614897565b5b600182039050919050565b7f537472696e67733a20686578206c656e67746820696e73756666696369656e74600082015250565b6000615a86602083614827565b9150615a9182615a50565b602082019050919050565b60006020820190508181036000830152615ab581615a79565b9050919050565b7f63616e6e6f7420706172736520616374696f6e00000000000000000000000000600082015250565b6000615af2601383614827565b9150615afd82615abc565b602082019050919050565b60006020820190508181036000830152615b2181615ae5565b9050919050565b600080600060608486031215615b4157615b40613919565b5b6000615b4f868287016139ff565b9350506020615b60868287016139ff565b9250506040615b71868287016139ff565b9150509250925092565b60008154615b888161457a565b615b928186614827565b94506001821660008114615bad5760018114615bc357615bf6565b60ff198316865281151560200286019350615bf6565b615bcc856145ab565b60005b83811015615bee57815481890152600182019150602081019050615bcf565b808801955050505b50505092915050565b6000606082019050615c14600083018661445f565b8181036020830152615c268185615b7b565b9050615c35604083018461445f565b949350505050565b6000604082019050615c526000830185615148565b615c5f6020830184615148565b9392505050565b6000615c7182613f95565b915063ffffffff8203615c8757615c86614897565b5b600182019050919050565b6000602082019050615ca76000830184615148565b92915050565b6000608082019050615cc26000830187613d41565b615ccf6020830186615763565b615cdc6040830185613d41565b615ce96060830184613d41565b95945050505050565b7f4e487b7100000000000000000000000000000000000000000000000000000000600052605160045260246000fdfea26469706673582212205fb18a30e47e72096845f06344b4704aae47724d8ab4d8841c2fd1b731e41e1664736f6c63430008110033",
    "linkReferences": {},
    "deployedLinkReferences": {}
}